{
  "contractName": "CryptoStar",
  "abi": [
    {
      "inputs": [],
      "stateMutability": "nonpayable",
      "type": "constructor"
    },
    {
      "anonymous": false,
      "inputs": [
        {
          "indexed": true,
          "internalType": "address",
          "name": "owner",
          "type": "address"
        },
        {
          "indexed": true,
          "internalType": "address",
          "name": "approved",
          "type": "address"
        },
        {
          "indexed": true,
          "internalType": "uint256",
          "name": "tokenId",
          "type": "uint256"
        }
      ],
      "name": "Approval",
      "type": "event"
    },
    {
      "anonymous": false,
      "inputs": [
        {
          "indexed": true,
          "internalType": "address",
          "name": "owner",
          "type": "address"
        },
        {
          "indexed": true,
          "internalType": "address",
          "name": "operator",
          "type": "address"
        },
        {
          "indexed": false,
          "internalType": "bool",
          "name": "approved",
          "type": "bool"
        }
      ],
      "name": "ApprovalForAll",
      "type": "event"
    },
    {
      "anonymous": false,
      "inputs": [
        {
          "indexed": true,
          "internalType": "address",
          "name": "from",
          "type": "address"
        },
        {
          "indexed": true,
          "internalType": "address",
          "name": "to",
          "type": "address"
        },
        {
          "indexed": true,
          "internalType": "uint256",
          "name": "tokenId",
          "type": "uint256"
        }
      ],
      "name": "Transfer",
      "type": "event"
    },
    {
      "inputs": [
        {
          "internalType": "address",
          "name": "to",
          "type": "address"
        },
        {
          "internalType": "uint256",
          "name": "tokenId",
          "type": "uint256"
        }
      ],
      "name": "approve",
      "outputs": [],
      "stateMutability": "nonpayable",
      "type": "function"
    },
    {
      "inputs": [
        {
          "internalType": "address",
          "name": "owner",
          "type": "address"
        }
      ],
      "name": "balanceOf",
      "outputs": [
        {
          "internalType": "uint256",
          "name": "",
          "type": "uint256"
        }
      ],
      "stateMutability": "view",
      "type": "function",
      "constant": true
    },
    {
      "inputs": [
        {
          "internalType": "uint256",
          "name": "tokenId",
          "type": "uint256"
        }
      ],
      "name": "getApproved",
      "outputs": [
        {
          "internalType": "address",
          "name": "",
          "type": "address"
        }
      ],
      "stateMutability": "view",
      "type": "function",
      "constant": true
    },
    {
      "inputs": [
        {
          "internalType": "uint256",
          "name": "",
          "type": "uint256"
        }
      ],
      "name": "idToPrice",
      "outputs": [
        {
          "internalType": "uint256",
          "name": "",
          "type": "uint256"
        }
      ],
      "stateMutability": "view",
      "type": "function",
      "constant": true
    },
    {
      "inputs": [
        {
          "internalType": "uint256",
          "name": "",
          "type": "uint256"
        }
      ],
      "name": "idToRequest",
      "outputs": [
        {
          "internalType": "address",
          "name": "",
          "type": "address"
        }
      ],
      "stateMutability": "view",
      "type": "function",
      "constant": true
    },
    {
      "inputs": [
        {
          "internalType": "uint256",
          "name": "",
          "type": "uint256"
        }
      ],
      "name": "idToStar",
      "outputs": [
        {
          "internalType": "string",
          "name": "name",
          "type": "string"
        }
      ],
      "stateMutability": "view",
      "type": "function",
      "constant": true
    },
    {
      "inputs": [
        {
          "internalType": "address",
          "name": "owner",
          "type": "address"
        },
        {
          "internalType": "address",
          "name": "operator",
          "type": "address"
        }
      ],
      "name": "isApprovedForAll",
      "outputs": [
        {
          "internalType": "bool",
          "name": "",
          "type": "bool"
        }
      ],
      "stateMutability": "view",
      "type": "function",
      "constant": true
    },
    {
      "inputs": [],
      "name": "name",
      "outputs": [
        {
          "internalType": "string",
          "name": "",
          "type": "string"
        }
      ],
      "stateMutability": "view",
      "type": "function",
      "constant": true
    },
    {
      "inputs": [
        {
          "internalType": "uint256",
          "name": "tokenId",
          "type": "uint256"
        }
      ],
      "name": "ownerOf",
      "outputs": [
        {
          "internalType": "address",
          "name": "",
          "type": "address"
        }
      ],
      "stateMutability": "view",
      "type": "function",
      "constant": true
    },
    {
      "inputs": [
        {
          "internalType": "address",
          "name": "from",
          "type": "address"
        },
        {
          "internalType": "address",
          "name": "to",
          "type": "address"
        },
        {
          "internalType": "uint256",
          "name": "tokenId",
          "type": "uint256"
        }
      ],
      "name": "safeTransferFrom",
      "outputs": [],
      "stateMutability": "nonpayable",
      "type": "function"
    },
    {
      "inputs": [
        {
          "internalType": "address",
          "name": "from",
          "type": "address"
        },
        {
          "internalType": "address",
          "name": "to",
          "type": "address"
        },
        {
          "internalType": "uint256",
          "name": "tokenId",
          "type": "uint256"
        },
        {
          "internalType": "bytes",
          "name": "_data",
          "type": "bytes"
        }
      ],
      "name": "safeTransferFrom",
      "outputs": [],
      "stateMutability": "nonpayable",
      "type": "function"
    },
    {
      "inputs": [
        {
          "internalType": "address",
          "name": "operator",
          "type": "address"
        },
        {
          "internalType": "bool",
          "name": "approved",
          "type": "bool"
        }
      ],
      "name": "setApprovalForAll",
      "outputs": [],
      "stateMutability": "nonpayable",
      "type": "function"
    },
    {
      "inputs": [
        {
          "internalType": "bytes4",
          "name": "interfaceId",
          "type": "bytes4"
        }
      ],
      "name": "supportsInterface",
      "outputs": [
        {
          "internalType": "bool",
          "name": "",
          "type": "bool"
        }
      ],
      "stateMutability": "view",
      "type": "function",
      "constant": true
    },
    {
      "inputs": [],
      "name": "symbol",
      "outputs": [
        {
          "internalType": "string",
          "name": "",
          "type": "string"
        }
      ],
      "stateMutability": "view",
      "type": "function",
      "constant": true
    },
    {
      "inputs": [
        {
          "internalType": "uint256",
          "name": "tokenId",
          "type": "uint256"
        }
      ],
      "name": "tokenURI",
      "outputs": [
        {
          "internalType": "string",
          "name": "",
          "type": "string"
        }
      ],
      "stateMutability": "view",
      "type": "function",
      "constant": true
    },
    {
      "inputs": [
        {
          "internalType": "address",
          "name": "from",
          "type": "address"
        },
        {
          "internalType": "address",
          "name": "to",
          "type": "address"
        },
        {
          "internalType": "uint256",
          "name": "tokenId",
          "type": "uint256"
        }
      ],
      "name": "transferFrom",
      "outputs": [],
      "stateMutability": "nonpayable",
      "type": "function"
    },
    {
      "inputs": [
        {
          "internalType": "string",
          "name": "_name",
          "type": "string"
        },
        {
          "internalType": "uint256",
          "name": "_tokenId",
          "type": "uint256"
        }
      ],
      "name": "createStar",
      "outputs": [],
      "stateMutability": "nonpayable",
      "type": "function"
    },
    {
      "inputs": [
        {
          "internalType": "uint256",
          "name": "_tokenId",
          "type": "uint256"
        }
      ],
      "name": "requestPurchasePermission",
      "outputs": [],
      "stateMutability": "nonpayable",
      "type": "function"
    },
    {
      "inputs": [
        {
          "internalType": "uint256",
          "name": "_tokenId",
          "type": "uint256"
        }
      ],
      "name": "declineRequest",
      "outputs": [],
      "stateMutability": "nonpayable",
      "type": "function"
    },
    {
      "inputs": [
        {
          "components": [
            {
              "internalType": "uint256",
              "name": "id",
              "type": "uint256"
            },
            {
              "internalType": "address",
              "name": "from",
              "type": "address"
            },
            {
              "internalType": "address",
              "name": "to",
              "type": "address"
            }
          ],
          "internalType": "struct CryptoStar.SwapStar[]",
          "name": "stars",
          "type": "tuple[]"
        }
      ],
      "name": "exchangeStars",
      "outputs": [],
      "stateMutability": "nonpayable",
      "type": "function"
    },
    {
      "inputs": [
        {
          "internalType": "address",
          "name": "_receiver",
          "type": "address"
        },
        {
          "internalType": "uint256",
          "name": "_tokenId",
          "type": "uint256"
        }
      ],
      "name": "transferStar",
      "outputs": [],
      "stateMutability": "nonpayable",
      "type": "function"
    },
    {
      "inputs": [
        {
          "internalType": "uint256",
          "name": "_tokenId",
          "type": "uint256"
        },
        {
          "internalType": "uint256",
          "name": "_price",
          "type": "uint256"
        }
      ],
      "name": "putStarUpForSale",
      "outputs": [],
      "stateMutability": "nonpayable",
      "type": "function"
    },
    {
      "inputs": [
        {
          "internalType": "uint256",
          "name": "_tokenId",
          "type": "uint256"
        }
      ],
      "name": "buyStar",
      "outputs": [],
      "stateMutability": "payable",
      "type": "function",
      "payable": true
    }
  ],
  "bytecode": "0x60806040523480156200001157600080fd5b506040518060400160405280600c81526020017f524d43727970746f5374617200000000000000000000000000000000000000008152506040518060400160405280600481526020017f524d435300000000000000000000000000000000000000000000000000000000815250816000908051906020019062000096929190620000b8565b508060019080519060200190620000af929190620000b8565b505050620001cd565b828054620000c69062000168565b90600052602060002090601f016020900481019282620000ea576000855562000136565b82601f106200010557805160ff191683800117855562000136565b8280016001018555821562000136579182015b828111156200013557825182559160200191906001019062000118565b5b50905062000145919062000149565b5090565b5b80821115620001645760008160009055506001016200014a565b5090565b600060028204905060018216806200018157607f821691505b602082108114156200019857620001976200019e565b5b50919050565b7f4e487b7100000000000000000000000000000000000000000000000000000000600052602260045260246000fd5b6133cd80620001dd6000396000f3fe6080604052600436106101405760003560e01c806370a08231116100b6578063c87b56dd1161006f578063c87b56dd14610445578063d085399814610482578063e7152a5c146104bf578063e985e9c5146104e8578063edd3ff3414610525578063f9c6a0541461056257610140565b806370a0823114610339578063733de8561461037657806395d89b411461039f5780639697c0a1146103ca578063a22cb465146103f3578063b88d4fde1461041c57610140565b80632f1c34ef116101085780632f1c34ef1461023c578063316a4361146102585780633545bdcb14610281578063399b4ddc146102aa57806342842e0e146102d35780636352211e146102fc57610140565b806301ffc9a71461014557806306fdde0314610182578063081812fc146101ad578063095ea7b3146101ea57806323b872dd14610213575b600080fd5b34801561015157600080fd5b5061016c600480360381019061016791906122e6565b61059f565b60405161017991906127c2565b60405180910390f35b34801561018e57600080fd5b50610197610681565b6040516101a491906127dd565b60405180910390f35b3480156101b957600080fd5b506101d460048036038101906101cf919061238c565b610713565b6040516101e1919061275b565b60405180910390f35b3480156101f657600080fd5b50610211600480360381019061020c9190612269565b610798565b005b34801561021f57600080fd5b5061023a60048036038101906102359190612163565b6108b0565b005b6102566004803603810190610251919061238c565b610910565b005b34801561026457600080fd5b5061027f600480360381019061027a91906123b5565b610af1565b005b34801561028d57600080fd5b506102a860048036038101906102a3919061238c565b610b83565b005b3480156102b657600080fd5b506102d160048036038101906102cc919061238c565b610bd8565b005b3480156102df57600080fd5b506102fa60048036038101906102f59190612163565b610c2e565b005b34801561030857600080fd5b50610323600480360381019061031e919061238c565b610c4e565b604051610330919061275b565b60405180910390f35b34801561034557600080fd5b50610360600480360381019061035b91906120fe565b610d00565b60405161036d9190612a3f565b60405180910390f35b34801561038257600080fd5b5061039d600480360381019061039891906122a5565b610db8565b005b3480156103ab57600080fd5b506103b4610e38565b6040516103c191906127dd565b60405180910390f35b3480156103d657600080fd5b506103f160048036038101906103ec9190612338565b610eca565b005b3480156103ff57600080fd5b5061041a6004803603810190610415919061222d565b610f20565b005b34801561042857600080fd5b50610443600480360381019061043e91906121b2565b6110a1565b005b34801561045157600080fd5b5061046c6004803603810190610467919061238c565b611103565b60405161047991906127dd565b60405180910390f35b34801561048e57600080fd5b506104a960048036038101906104a4919061238c565b6111aa565b6040516104b6919061275b565b60405180910390f35b3480156104cb57600080fd5b506104e660048036038101906104e19190612269565b6111dd565b005b3480156104f457600080fd5b5061050f600480360381019061050a9190612127565b61126c565b60405161051c91906127c2565b60405180910390f35b34801561053157600080fd5b5061054c6004803603810190610547919061238c565b611300565b60405161055991906127dd565b60405180910390f35b34801561056e57600080fd5b506105896004803603810190610584919061238c565b6113a6565b6040516105969190612a3f565b60405180910390f35b60007f80ac58cd000000000000000000000000000000000000000000000000000000007bffffffffffffffffffffffffffffffffffffffffffffffffffffffff1916827bffffffffffffffffffffffffffffffffffffffffffffffffffffffff1916148061066a57507f5b5e139f000000000000000000000000000000000000000000000000000000007bffffffffffffffffffffffffffffffffffffffffffffffffffffffff1916827bffffffffffffffffffffffffffffffffffffffffffffffffffffffff1916145b8061067a5750610679826113be565b5b9050919050565b60606000805461069090612cc1565b80601f01602080910402602001604051908101604052809291908181526020018280546106bc90612cc1565b80156107095780601f106106de57610100808354040283529160200191610709565b820191906000526020600020905b8154815290600101906020018083116106ec57829003601f168201915b5050505050905090565b600061071e82611428565b61075d576040517f08c379a00000000000000000000000000000000000000000000000000000000081526004016107549061291f565b60405180910390fd5b6004600083815260200190815260200160002060009054906101000a900473ffffffffffffffffffffffffffffffffffffffff169050919050565b60006107a382610c4e565b90508073ffffffffffffffffffffffffffffffffffffffff168373ffffffffffffffffffffffffffffffffffffffff161415610814576040517f08c379a000000000000000000000000000000000000000000000000000000000815260040161080b906129bf565b60405180910390fd5b8073ffffffffffffffffffffffffffffffffffffffff16610833611494565b73ffffffffffffffffffffffffffffffffffffffff16148061086257506108618161085c611494565b61126c565b5b6108a1576040517f08c379a00000000000000000000000000000000000000000000000000000000081526004016108989061289f565b60405180910390fd5b6108ab838361149c565b505050565b6108c16108bb611494565b82611555565b610900576040517f08c379a00000000000000000000000000000000000000000000000000000000081526004016108f790612a1f565b60405180910390fd5b61090b838383611633565b505050565b6000600760008381526020019081526020016000205411610966576040517f08c379a000000000000000000000000000000000000000000000000000000000815260040161095d906129ff565b60405180910390fd5b600060076000838152602001908152602001600020549050600061098983610c4e565b90508134116109cd576040517f08c379a00000000000000000000000000000000000000000000000000000000081526004016109c49061299f565b60405180910390fd5b6109d88133856108b0565b60006008600085815260200190815260200160002060006101000a81548173ffffffffffffffffffffffffffffffffffffffff021916908373ffffffffffffffffffffffffffffffffffffffff1602179055506000600760008581526020019081526020016000208190555060008190508073ffffffffffffffffffffffffffffffffffffffff166108fc849081150290604051600060405180830381858888f19350505050158015610a8f573d6000803e3d6000fd5b5082341115610aeb573373ffffffffffffffffffffffffffffffffffffffff166108fc8434610abe9190612bd7565b9081150290604051600060405180830381858888f19350505050158015610ae9573d6000803e3d6000fd5b505b50505050565b3373ffffffffffffffffffffffffffffffffffffffff16610b1183610c4e565b73ffffffffffffffffffffffffffffffffffffffff1614610b67576040517f08c379a0000000000000000000000000000000000000000000000000000000008152600401610b5e906129df565b60405180910390fd5b8060076000848152602001908152602001600020819055505050565b336008600083815260200190815260200160002060006101000a81548173ffffffffffffffffffffffffffffffffffffffff021916908373ffffffffffffffffffffffffffffffffffffffff16021790555050565b60006008600083815260200190815260200160002060006101000a81548173ffffffffffffffffffffffffffffffffffffffff021916908373ffffffffffffffffffffffffffffffffffffffff16021790555050565b610c49838383604051806020016040528060008152506110a1565b505050565b6000806002600084815260200190815260200160002060009054906101000a900473ffffffffffffffffffffffffffffffffffffffff169050600073ffffffffffffffffffffffffffffffffffffffff168173ffffffffffffffffffffffffffffffffffffffff161415610cf7576040517f08c379a0000000000000000000000000000000000000000000000000000000008152600401610cee906128df565b60405180910390fd5b80915050919050565b60008073ffffffffffffffffffffffffffffffffffffffff168273ffffffffffffffffffffffffffffffffffffffff161415610d71576040517f08c379a0000000000000000000000000000000000000000000000000000000008152600401610d68906128bf565b60405180910390fd5b600360008373ffffffffffffffffffffffffffffffffffffffff1673ffffffffffffffffffffffffffffffffffffffff168152602001908152602001600020549050919050565b60005b8151811015610e34576000828281518110610dff577f4e487b7100000000000000000000000000000000000000000000000000000000600052603260045260246000fd5b60200260200101519050610e208160200151826040015183600001516108b0565b508080610e2c90612d24565b915050610dbb565b5050565b606060018054610e4790612cc1565b80601f0160208091040260200160405190810160405280929190818152602001828054610e7390612cc1565b8015610ec05780601f10610e9557610100808354040283529160200191610ec0565b820191906000526020600020905b815481529060010190602001808311610ea357829003601f168201915b5050505050905090565b6000604051806020016040528084815250905080600660008481526020019081526020016000206000820151816000019080519060200190610f0d929190611e2c565b50905050610f1b338361188f565b505050565b610f28611494565b73ffffffffffffffffffffffffffffffffffffffff168273ffffffffffffffffffffffffffffffffffffffff161415610f96576040517f08c379a0000000000000000000000000000000000000000000000000000000008152600401610f8d9061285f565b60405180910390fd5b8060056000610fa3611494565b73ffffffffffffffffffffffffffffffffffffffff1673ffffffffffffffffffffffffffffffffffffffff16815260200190815260200160002060008473ffffffffffffffffffffffffffffffffffffffff1673ffffffffffffffffffffffffffffffffffffffff16815260200190815260200160002060006101000a81548160ff0219169083151502179055508173ffffffffffffffffffffffffffffffffffffffff16611050611494565b73ffffffffffffffffffffffffffffffffffffffff167f17307eab39ab6107e8899845ad3d59bd9653f200f220920489ca2b5937696c318360405161109591906127c2565b60405180910390a35050565b6110b26110ac611494565b83611555565b6110f1576040517f08c379a00000000000000000000000000000000000000000000000000000000081526004016110e890612a1f565b60405180910390fd5b6110fd84848484611a5d565b50505050565b606061110e82611428565b61114d576040517f08c379a00000000000000000000000000000000000000000000000000000000081526004016111449061297f565b60405180910390fd5b6000611157611ab9565b9050600081511161117757604051806020016040528060008152506111a2565b8061118184611ad0565b604051602001611192929190612737565b6040516020818303038152906040525b915050919050565b60086020528060005260406000206000915054906101000a900473ffffffffffffffffffffffffffffffffffffffff1681565b3373ffffffffffffffffffffffffffffffffffffffff166111fd82610c4e565b73ffffffffffffffffffffffffffffffffffffffff1614611253576040517f08c379a000000000000000000000000000000000000000000000000000000000815260040161124a9061293f565b60405180910390fd5b61125d8282610798565b6112683383836108b0565b5050565b6000600560008473ffffffffffffffffffffffffffffffffffffffff1673ffffffffffffffffffffffffffffffffffffffff16815260200190815260200160002060008373ffffffffffffffffffffffffffffffffffffffff1673ffffffffffffffffffffffffffffffffffffffff16815260200190815260200160002060009054906101000a900460ff16905092915050565b600660205280600052604060002060009150905080600001805461132390612cc1565b80601f016020809104026020016040519081016040528092919081815260200182805461134f90612cc1565b801561139c5780601f106113715761010080835404028352916020019161139c565b820191906000526020600020905b81548152906001019060200180831161137f57829003601f168201915b5050505050905081565b60076020528060005260406000206000915090505481565b60007f01ffc9a7000000000000000000000000000000000000000000000000000000007bffffffffffffffffffffffffffffffffffffffffffffffffffffffff1916827bffffffffffffffffffffffffffffffffffffffffffffffffffffffff1916149050919050565b60008073ffffffffffffffffffffffffffffffffffffffff166002600084815260200190815260200160002060009054906101000a900473ffffffffffffffffffffffffffffffffffffffff1673ffffffffffffffffffffffffffffffffffffffff1614159050919050565b600033905090565b816004600083815260200190815260200160002060006101000a81548173ffffffffffffffffffffffffffffffffffffffff021916908373ffffffffffffffffffffffffffffffffffffffff160217905550808273ffffffffffffffffffffffffffffffffffffffff1661150f83610c4e565b73ffffffffffffffffffffffffffffffffffffffff167f8c5be1e5ebec7d5bd14f71427d1e84f3dd0314c0f7b2291e5b200ac8c7c3b92560405160405180910390a45050565b600061156082611428565b61159f576040517f08c379a00000000000000000000000000000000000000000000000000000000081526004016115969061287f565b60405180910390fd5b60006115aa83610c4e565b90508073ffffffffffffffffffffffffffffffffffffffff168473ffffffffffffffffffffffffffffffffffffffff16148061161957508373ffffffffffffffffffffffffffffffffffffffff1661160184610713565b73ffffffffffffffffffffffffffffffffffffffff16145b8061162a5750611629818561126c565b5b91505092915050565b8273ffffffffffffffffffffffffffffffffffffffff1661165382610c4e565b73ffffffffffffffffffffffffffffffffffffffff16146116a9576040517f08c379a00000000000000000000000000000000000000000000000000000000081526004016116a09061295f565b60405180910390fd5b600073ffffffffffffffffffffffffffffffffffffffff168273ffffffffffffffffffffffffffffffffffffffff161415611719576040517f08c379a00000000000000000000000000000000000000000000000000000000081526004016117109061283f565b60405180910390fd5b611724838383611c7d565b61172f60008261149c565b6001600360008573ffffffffffffffffffffffffffffffffffffffff1673ffffffffffffffffffffffffffffffffffffffff168152602001908152602001600020600082825461177f9190612bd7565b925050819055506001600360008473ffffffffffffffffffffffffffffffffffffffff1673ffffffffffffffffffffffffffffffffffffffff16815260200190815260200160002060008282546117d69190612b50565b92505081905550816002600083815260200190815260200160002060006101000a81548173ffffffffffffffffffffffffffffffffffffffff021916908373ffffffffffffffffffffffffffffffffffffffff160217905550808273ffffffffffffffffffffffffffffffffffffffff168473ffffffffffffffffffffffffffffffffffffffff167fddf252ad1be2c89b69c2b068fc378daa952ba7f163c4a11628f55a4df523b3ef60405160405180910390a4505050565b600073ffffffffffffffffffffffffffffffffffffffff168273ffffffffffffffffffffffffffffffffffffffff1614156118ff576040517f08c379a00000000000000000000000000000000000000000000000000000000081526004016118f6906128ff565b60405180910390fd5b61190881611428565b15611948576040517f08c379a000000000000000000000000000000000000000000000000000000000815260040161193f9061281f565b60405180910390fd5b61195460008383611c7d565b6001600360008473ffffffffffffffffffffffffffffffffffffffff1673ffffffffffffffffffffffffffffffffffffffff16815260200190815260200160002060008282546119a49190612b50565b92505081905550816002600083815260200190815260200160002060006101000a81548173ffffffffffffffffffffffffffffffffffffffff021916908373ffffffffffffffffffffffffffffffffffffffff160217905550808273ffffffffffffffffffffffffffffffffffffffff16600073ffffffffffffffffffffffffffffffffffffffff167fddf252ad1be2c89b69c2b068fc378daa952ba7f163c4a11628f55a4df523b3ef60405160405180910390a45050565b611a68848484611633565b611a7484848484611c82565b611ab3576040517f08c379a0000000000000000000000000000000000000000000000000000000008152600401611aaa906127ff565b60405180910390fd5b50505050565b606060405180602001604052806000815250905090565b60606000821415611b18576040518060400160405280600181526020017f30000000000000000000000000000000000000000000000000000000000000008152509050611c78565b600082905060005b60008214611b4a578080611b3390612d24565b915050600a82611b439190612ba6565b9150611b20565b60008167ffffffffffffffff811115611b8c577f4e487b7100000000000000000000000000000000000000000000000000000000600052604160045260246000fd5b6040519080825280601f01601f191660200182016040528015611bbe5781602001600182028036833780820191505090505b5090505b60008514611c7157600182611bd79190612bd7565b9150600a85611be69190612d6d565b6030611bf29190612b50565b60f81b818381518110611c2e577f4e487b7100000000000000000000000000000000000000000000000000000000600052603260045260246000fd5b60200101907effffffffffffffffffffffffffffffffffffffffffffffffffffffffffffff1916908160001a905350600a85611c6a9190612ba6565b9450611bc2565b8093505050505b919050565b505050565b6000611ca38473ffffffffffffffffffffffffffffffffffffffff16611e19565b15611e0c578373ffffffffffffffffffffffffffffffffffffffff1663150b7a02611ccc611494565b8786866040518563ffffffff1660e01b8152600401611cee9493929190612776565b602060405180830381600087803b158015611d0857600080fd5b505af1925050508015611d3957506040513d601f19601f82011682018060405250810190611d36919061230f565b60015b611dbc573d8060008114611d69576040519150601f19603f3d011682016040523d82523d6000602084013e611d6e565b606091505b50600081511415611db4576040517f08c379a0000000000000000000000000000000000000000000000000000000008152600401611dab906127ff565b60405180910390fd5b805181602001fd5b63150b7a0260e01b7bffffffffffffffffffffffffffffffffffffffffffffffffffffffff1916817bffffffffffffffffffffffffffffffffffffffffffffffffffffffff191614915050611e11565b600190505b949350505050565b600080823b905060008111915050919050565b828054611e3890612cc1565b90600052602060002090601f016020900481019282611e5a5760008555611ea1565b82601f10611e7357805160ff1916838001178555611ea1565b82800160010185558215611ea1579182015b82811115611ea0578251825591602001919060010190611e85565b5b509050611eae9190611eb2565b5090565b5b80821115611ecb576000816000905550600101611eb3565b5090565b6000611ee2611edd84612a7f565b612a5a565b90508083825260208201905082856060860282011115611f0157600080fd5b60005b85811015611f315781611f178882612089565b845260208401935060608301925050600181019050611f04565b5050509392505050565b6000611f4e611f4984612aab565b612a5a565b905082815260208101848484011115611f6657600080fd5b611f71848285612c7f565b509392505050565b6000611f8c611f8784612adc565b612a5a565b905082815260208101848484011115611fa457600080fd5b611faf848285612c7f565b509392505050565b600081359050611fc68161333b565b92915050565b600082601f830112611fdd57600080fd5b8135611fed848260208601611ecf565b91505092915050565b60008135905061200581613352565b92915050565b60008135905061201a81613369565b92915050565b60008151905061202f81613369565b92915050565b600082601f83011261204657600080fd5b8135612056848260208601611f3b565b91505092915050565b600082601f83011261207057600080fd5b8135612080848260208601611f79565b91505092915050565b60006060828403121561209b57600080fd5b6120a56060612a5a565b905060006120b5848285016120e9565b60008301525060206120c984828501611fb7565b60208301525060406120dd84828501611fb7565b60408301525092915050565b6000813590506120f881613380565b92915050565b60006020828403121561211057600080fd5b600061211e84828501611fb7565b91505092915050565b6000806040838503121561213a57600080fd5b600061214885828601611fb7565b925050602061215985828601611fb7565b9150509250929050565b60008060006060848603121561217857600080fd5b600061218686828701611fb7565b935050602061219786828701611fb7565b92505060406121a8868287016120e9565b9150509250925092565b600080600080608085870312156121c857600080fd5b60006121d687828801611fb7565b94505060206121e787828801611fb7565b93505060406121f8878288016120e9565b925050606085013567ffffffffffffffff81111561221557600080fd5b61222187828801612035565b91505092959194509250565b6000806040838503121561224057600080fd5b600061224e85828601611fb7565b925050602061225f85828601611ff6565b9150509250929050565b6000806040838503121561227c57600080fd5b600061228a85828601611fb7565b925050602061229b858286016120e9565b9150509250929050565b6000602082840312156122b757600080fd5b600082013567ffffffffffffffff8111156122d157600080fd5b6122dd84828501611fcc565b91505092915050565b6000602082840312156122f857600080fd5b60006123068482850161200b565b91505092915050565b60006020828403121561232157600080fd5b600061232f84828501612020565b91505092915050565b6000806040838503121561234b57600080fd5b600083013567ffffffffffffffff81111561236557600080fd5b6123718582860161205f565b9250506020612382858286016120e9565b9150509250929050565b60006020828403121561239e57600080fd5b60006123ac848285016120e9565b91505092915050565b600080604083850312156123c857600080fd5b60006123d6858286016120e9565b92505060206123e7858286016120e9565b9150509250929050565b6123fa81612c0b565b82525050565b61240981612c1d565b82525050565b600061241a82612b0d565b6124248185612b23565b9350612434818560208601612c8e565b61243d81612e5a565b840191505092915050565b600061245382612b18565b61245d8185612b34565b935061246d818560208601612c8e565b61247681612e5a565b840191505092915050565b600061248c82612b18565b6124968185612b45565b93506124a6818560208601612c8e565b80840191505092915050565b60006124bf603283612b34565b91506124ca82612e6b565b604082019050919050565b60006124e2601c83612b34565b91506124ed82612eba565b602082019050919050565b6000612505602483612b34565b915061251082612ee3565b604082019050919050565b6000612528601983612b34565b915061253382612f32565b602082019050919050565b600061254b602c83612b34565b915061255682612f5b565b604082019050919050565b600061256e603883612b34565b915061257982612faa565b604082019050919050565b6000612591602a83612b34565b915061259c82612ff9565b604082019050919050565b60006125b4602983612b34565b91506125bf82613048565b604082019050919050565b60006125d7602083612b34565b91506125e282613097565b602082019050919050565b60006125fa602c83612b34565b9150612605826130c0565b604082019050919050565b600061261d602783612b34565b91506126288261310f565b604082019050919050565b6000612640602983612b34565b915061264b8261315e565b604082019050919050565b6000612663602f83612b34565b915061266e826131ad565b604082019050919050565b6000612686601d83612b34565b9150612691826131fc565b602082019050919050565b60006126a9602183612b34565b91506126b482613225565b604082019050919050565b60006126cc602383612b34565b91506126d782613274565b604082019050919050565b60006126ef601e83612b34565b91506126fa826132c3565b602082019050919050565b6000612712603183612b34565b915061271d826132ec565b604082019050919050565b61273181612c75565b82525050565b60006127438285612481565b915061274f8284612481565b91508190509392505050565b600060208201905061277060008301846123f1565b92915050565b600060808201905061278b60008301876123f1565b61279860208301866123f1565b6127a56040830185612728565b81810360608301526127b7818461240f565b905095945050505050565b60006020820190506127d76000830184612400565b92915050565b600060208201905081810360008301526127f78184612448565b905092915050565b60006020820190508181036000830152612818816124b2565b9050919050565b60006020820190508181036000830152612838816124d5565b9050919050565b60006020820190508181036000830152612858816124f8565b9050919050565b600060208201905081810360008301526128788161251b565b9050919050565b600060208201905081810360008301526128988161253e565b9050919050565b600060208201905081810360008301526128b881612561565b9050919050565b600060208201905081810360008301526128d881612584565b9050919050565b600060208201905081810360008301526128f8816125a7565b9050919050565b60006020820190508181036000830152612918816125ca565b9050919050565b60006020820190508181036000830152612938816125ed565b9050919050565b6000602082019050818103600083015261295881612610565b9050919050565b6000602082019050818103600083015261297881612633565b9050919050565b6000602082019050818103600083015261299881612656565b9050919050565b600060208201905081810360008301526129b881612679565b9050919050565b600060208201905081810360008301526129d88161269c565b9050919050565b600060208201905081810360008301526129f8816126bf565b9050919050565b60006020820190508181036000830152612a18816126e2565b9050919050565b60006020820190508181036000830152612a3881612705565b9050919050565b6000602082019050612a546000830184612728565b92915050565b6000612a64612a75565b9050612a708282612cf3565b919050565b6000604051905090565b600067ffffffffffffffff821115612a9a57612a99612e2b565b5b602082029050602081019050919050565b600067ffffffffffffffff821115612ac657612ac5612e2b565b5b612acf82612e5a565b9050602081019050919050565b600067ffffffffffffffff821115612af757612af6612e2b565b5b612b0082612e5a565b9050602081019050919050565b600081519050919050565b600081519050919050565b600082825260208201905092915050565b600082825260208201905092915050565b600081905092915050565b6000612b5b82612c75565b9150612b6683612c75565b9250827fffffffffffffffffffffffffffffffffffffffffffffffffffffffffffffffff03821115612b9b57612b9a612d9e565b5b828201905092915050565b6000612bb182612c75565b9150612bbc83612c75565b925082612bcc57612bcb612dcd565b5b828204905092915050565b6000612be282612c75565b9150612bed83612c75565b925082821015612c0057612bff612d9e565b5b828203905092915050565b6000612c1682612c55565b9050919050565b60008115159050919050565b60007fffffffff0000000000000000000000000000000000000000000000000000000082169050919050565b600073ffffffffffffffffffffffffffffffffffffffff82169050919050565b6000819050919050565b82818337600083830152505050565b60005b83811015612cac578082015181840152602081019050612c91565b83811115612cbb576000848401525b50505050565b60006002820490506001821680612cd957607f821691505b60208210811415612ced57612cec612dfc565b5b50919050565b612cfc82612e5a565b810181811067ffffffffffffffff82111715612d1b57612d1a612e2b565b5b80604052505050565b6000612d2f82612c75565b91507fffffffffffffffffffffffffffffffffffffffffffffffffffffffffffffffff821415612d6257612d61612d9e565b5b600182019050919050565b6000612d7882612c75565b9150612d8383612c75565b925082612d9357612d92612dcd565b5b828206905092915050565b7f4e487b7100000000000000000000000000000000000000000000000000000000600052601160045260246000fd5b7f4e487b7100000000000000000000000000000000000000000000000000000000600052601260045260246000fd5b7f4e487b7100000000000000000000000000000000000000000000000000000000600052602260045260246000fd5b7f4e487b7100000000000000000000000000000000000000000000000000000000600052604160045260246000fd5b6000601f19601f8301169050919050565b7f4552433732313a207472616e7366657220746f206e6f6e20455243373231526560008201527f63656976657220696d706c656d656e7465720000000000000000000000000000602082015250565b7f4552433732313a20746f6b656e20616c7265616479206d696e74656400000000600082015250565b7f4552433732313a207472616e7366657220746f20746865207a65726f2061646460008201527f7265737300000000000000000000000000000000000000000000000000000000602082015250565b7f4552433732313a20617070726f766520746f2063616c6c657200000000000000600082015250565b7f4552433732313a206f70657261746f7220717565727920666f72206e6f6e657860008201527f697374656e7420746f6b656e0000000000000000000000000000000000000000602082015250565b7f4552433732313a20617070726f76652063616c6c6572206973206e6f74206f7760008201527f6e6572206e6f7220617070726f76656420666f7220616c6c0000000000000000602082015250565b7f4552433732313a2062616c616e636520717565727920666f7220746865207a6560008201527f726f206164647265737300000000000000000000000000000000000000000000602082015250565b7f4552433732313a206f776e657220717565727920666f72206e6f6e657869737460008201527f656e7420746f6b656e0000000000000000000000000000000000000000000000602082015250565b7f4552433732313a206d696e7420746f20746865207a65726f2061646472657373600082015250565b7f4552433732313a20617070726f76656420717565727920666f72206e6f6e657860008201527f697374656e7420746f6b656e0000000000000000000000000000000000000000602082015250565b7f596f752063616e2774207472616e736665722061205374617220796f7520646f60008201527f6e2774206f776e00000000000000000000000000000000000000000000000000602082015250565b7f4552433732313a207472616e73666572206f6620746f6b656e2074686174206960008201527f73206e6f74206f776e0000000000000000000000000000000000000000000000602082015250565b7f4552433732314d657461646174613a2055524920717565727920666f72206e6f60008201527f6e6578697374656e7420746f6b656e0000000000000000000000000000000000602082015250565b7f596f75206e65656420746f206861766520656e6f756768204574686572000000600082015250565b7f4552433732313a20617070726f76616c20746f2063757272656e74206f776e6560008201527f7200000000000000000000000000000000000000000000000000000000000000602082015250565b7f596f752063616e27742073656c6c2061205374617220796f7520646f6e27742060008201527f6f776e0000000000000000000000000000000000000000000000000000000000602082015250565b7f54686520537461722073686f756c6420626520757020666f722073616c650000600082015250565b7f4552433732313a207472616e736665722063616c6c6572206973206e6f74206f60008201527f776e6572206e6f7220617070726f766564000000000000000000000000000000602082015250565b61334481612c0b565b811461334f57600080fd5b50565b61335b81612c1d565b811461336657600080fd5b50565b61337281612c29565b811461337d57600080fd5b50565b61338981612c75565b811461339457600080fd5b5056fea26469706673582212202c59490091798d44d1e627f26975e7b41fe1133c041e9ff20bdba441a714d2fc64736f6c63430008040033",
  "immutableReferences": {},
  "source": "// SPDX-License-Identifier: MIT\npragma solidity ^0.8.0;\n\nimport \"../react-app/node_modules/@openzeppelin/contracts/token/ERC721/ERC721.sol\";\n\ncontract CryptoStar is ERC721 {\n\n    constructor() ERC721(\"RMCryptoStar\", \"RMCS\") {}\n\n    struct Star {\n        string name;\n    }\n\n    struct SwapStar {\n        uint256 id;\n        address from;\n        address to;\n    }\n\n    mapping(uint256 => Star) public idToStar;\n    mapping(uint256 => uint256) public idToPrice;\n    mapping(uint256 => address) public idToRequest;\n\n    // Create Star using the Struct\n    function createStar(string memory _name, uint256 _tokenId) public { // Passing the name and tokenId as a parameters\n        Star memory newStar = Star(_name); // Star is an struct so we are creating a new Star\n        idToStar[_tokenId] = newStar; // Creating in memory the Star -> tokenId mapping\n\n        _mint(msg.sender, _tokenId); // _mint assign the the star with _tokenId to the sender address (ownership)\n    }\n\n    // Request Purchase Permission\n    function requestPurchasePermission(uint256 _tokenId) public {\n        idToRequest[_tokenId] = msg.sender;\n    }\n\n    function declineRequest(uint256 _tokenId) public {\n        idToRequest[_tokenId] = address(0);\n    }\n    \n    // Exchange Stars\n    function exchangeStars(SwapStar[] memory stars) public {\n        for (uint256 index = 0; index < stars.length; index++) {\n            SwapStar memory star = stars[index];\n            transferFrom(payable(star.from), payable(star.to), star.id);\n        }\n    }\n  \n    // Exchange Stars\n    function transferStar(address _receiver, uint256 _tokenId ) public {\n        require(ownerOf(_tokenId) == msg.sender, \"You can't transfer a Star you don't own\");\n        approve(_receiver, _tokenId);\n        transferFrom(msg.sender, _receiver, _tokenId);\n    }\n\n    // Putting an Star for sale (Adding the star tokenid into the mapping idToPrice, first verify that the sender is the owner)\n    function putStarUpForSale(uint256 _tokenId, uint256 _price) public {\n        require(ownerOf(_tokenId) == msg.sender, \"You can't sell a Star you don't own\");\n        idToPrice[_tokenId] = _price;\n    }\n\n    // Buy star. Buyer must be pre approved by seller.\n    function buyStar(uint256 _tokenId) public payable {\n        require(idToPrice[_tokenId] > 0, \"The Star should be up for sale\");\n        \n        uint256 starCost = idToPrice[_tokenId];\n        address ownerAddress = ownerOf(_tokenId);\n        require(msg.value > starCost, \"You need to have enough Ether\");\n        \n        transferFrom(ownerAddress, msg.sender, _tokenId); // We can't use _addTokenTo or_removeTokenFrom functions, now we have to use _transferFrom\n        idToRequest[_tokenId] = address(0);\n        idToPrice[_tokenId] = 0;\n        address payable ownerAddressPayable = payable(ownerAddress); // We need to make this conversion to be able to use transfer() function to transfer ethers\n        ownerAddressPayable.transfer(starCost);\n        \n        if(msg.value > starCost) {\n            payable(msg.sender).transfer(msg.value - starCost);\n        }\n    }\n}",
  "sourcePath": "/home/richardmands/_cinderhouse/crypto/udacity_nanodegree/Project02CryptoStarDapp/contracts/CryptoStar.sol",
  "compiler": {
    "name": "solc",
    "version": "0.8.4+commit.c7e474f2.Emscripten.clang"
  },
  "schemaVersion": "3.4.1",
  "updatedAt": "2021-06-06T16:58:41.837Z",
  "networkType": "ethereum",
  "devdoc": {
    "kind": "dev",
    "methods": {
      "approve(address,uint256)": {
        "details": "See {IERC721-approve}."
      },
      "balanceOf(address)": {
        "details": "See {IERC721-balanceOf}."
      },
      "getApproved(uint256)": {
        "details": "See {IERC721-getApproved}."
      },
      "isApprovedForAll(address,address)": {
        "details": "See {IERC721-isApprovedForAll}."
      },
      "name()": {
        "details": "See {IERC721Metadata-name}."
      },
      "ownerOf(uint256)": {
        "details": "See {IERC721-ownerOf}."
      },
      "safeTransferFrom(address,address,uint256)": {
        "details": "See {IERC721-safeTransferFrom}."
      },
      "safeTransferFrom(address,address,uint256,bytes)": {
        "details": "See {IERC721-safeTransferFrom}."
      },
      "setApprovalForAll(address,bool)": {
        "details": "See {IERC721-setApprovalForAll}."
      },
      "supportsInterface(bytes4)": {
        "details": "See {IERC165-supportsInterface}."
      },
      "symbol()": {
        "details": "See {IERC721Metadata-symbol}."
      },
      "tokenURI(uint256)": {
        "details": "See {IERC721Metadata-tokenURI}."
      },
      "transferFrom(address,address,uint256)": {
        "details": "See {IERC721-transferFrom}."
      }
    },
    "version": 1
  },
  "userdoc": {
    "kind": "user",
    "methods": {},
    "version": 1
  }
}